{
  "contractName": "CoinFlip",
  "abi": [
    {
      "constant": true,
      "inputs": [
        {
          "name": "",
          "type": "address"
        }
      ],
      "name": "games",
      "outputs": [
        {
          "name": "index",
          "type": "uint256"
        },
        {
          "name": "active",
          "type": "bool"
        },
        {
          "name": "initiatorBet",
          "type": "uint256"
        },
        {
          "name": "amount",
          "type": "uint256"
        }
      ],
      "payable": false,
      "stateMutability": "view",
      "type": "function"
    },
    {
      "constant": true,
      "inputs": [],
      "name": "owner",
      "outputs": [
        {
          "name": "",
          "type": "address"
        }
      ],
      "payable": false,
      "stateMutability": "view",
      "type": "function"
    },
    {
      "constant": true,
      "inputs": [
        {
          "name": "",
          "type": "uint256"
        }
      ],
      "name": "initiators",
      "outputs": [
        {
          "name": "",
          "type": "address"
        }
      ],
      "payable": false,
      "stateMutability": "view",
      "type": "function"
    },
    {
      "constant": true,
      "inputs": [],
      "name": "initiatorsCount",
      "outputs": [
        {
          "name": "",
          "type": "uint256"
        }
      ],
      "payable": false,
      "stateMutability": "view",
      "type": "function"
    },
    {
      "payable": true,
      "stateMutability": "payable",
      "type": "fallback"
    },
    {
      "anonymous": false,
      "inputs": [
        {
          "indexed": false,
          "name": "initiator",
          "type": "address"
        },
        {
          "indexed": false,
          "name": "winner",
          "type": "address"
        }
      ],
      "name": "GameFinish",
      "type": "event"
    },
    {
      "constant": false,
      "inputs": [],
      "name": "constuctor",
      "outputs": [],
      "payable": false,
      "stateMutability": "nonpayable",
      "type": "function"
    },
    {
      "constant": false,
      "inputs": [],
      "name": "kill",
      "outputs": [],
      "payable": false,
      "stateMutability": "nonpayable",
      "type": "function"
    },
    {
      "constant": true,
      "inputs": [],
      "name": "getInitiatorsCount",
      "outputs": [
        {
          "name": "",
          "type": "uint256"
        }
      ],
      "payable": false,
      "stateMutability": "view",
      "type": "function"
    },
    {
      "constant": true,
      "inputs": [
        {
          "name": "index",
          "type": "uint256"
        }
      ],
      "name": "getInitiator",
      "outputs": [
        {
          "name": "",
          "type": "address"
        }
      ],
      "payable": false,
      "stateMutability": "view",
      "type": "function"
    },
    {
      "constant": true,
      "inputs": [],
      "name": "getInitiators",
      "outputs": [
        {
          "name": "",
          "type": "address[100]"
        }
      ],
      "payable": false,
      "stateMutability": "view",
      "type": "function"
    },
    {
      "constant": false,
      "inputs": [],
      "name": "addInitiator",
      "outputs": [],
      "payable": false,
      "stateMutability": "nonpayable",
      "type": "function"
    },
    {
      "constant": false,
      "inputs": [
        {
          "name": "bet",
          "type": "uint256"
        }
      ],
      "name": "createGame",
      "outputs": [
        {
          "name": "index",
          "type": "uint256"
        }
      ],
      "payable": true,
      "stateMutability": "payable",
      "type": "function"
    },
    {
      "constant": true,
      "inputs": [
        {
          "name": "initiator",
          "type": "address"
        }
      ],
      "name": "checkGameActive",
      "outputs": [
        {
          "name": "",
          "type": "bool"
        }
      ],
      "payable": false,
      "stateMutability": "view",
      "type": "function"
    },
    {
      "constant": true,
      "inputs": [
        {
          "name": "initiator",
          "type": "address"
        }
      ],
      "name": "checkGameAmount",
      "outputs": [
        {
          "name": "",
          "type": "uint256"
        }
      ],
      "payable": false,
      "stateMutability": "view",
      "type": "function"
    },
    {
      "constant": false,
      "inputs": [
        {
          "name": "initiator",
          "type": "address"
        }
      ],
      "name": "joinGame",
      "outputs": [],
      "payable": true,
      "stateMutability": "payable",
      "type": "function"
    },
    {
      "constant": false,
      "inputs": [],
      "name": "stopGame",
      "outputs": [],
      "payable": false,
      "stateMutability": "nonpayable",
      "type": "function"
    }
  ],
  "bytecode": "0x608060405234801561001057600080fd5b506110a4806100206000396000f3006080604052600436106100db576000357c0100000000000000000000000000000000000000000000000000000000900463ffffffff1680632389a290146100dd578063268075371461011357806341c0e1b51461013e57806348e837b9146101555780634b5c55b2146101895780635b6b31ad146101dc57806360695cbb1461023757806379131a191461024e57806383bd72ba146102be5780638da5cb5b146102d5578063bbdb9bcd1461032c578063be40037c14610399578063c7d3024914610406578063dfe4858a14610431578063efff2eb914610448575b005b610111600480360381019080803573ffffffffffffffffffffffffffffffffffffffff16906020019092919050505061049f565b005b34801561011f57600080fd5b506101286107fe565b6040518082815260200191505060405180910390f35b34801561014a57600080fd5b50610153610808565b005b61017360048036038101908080359060200190929190505050610899565b6040518082815260200191505060405180910390f35b34801561019557600080fd5b5061019e610ab3565b6040518082606460200280838360005b838110156101c95780820151818401526020810190506101ae565b5050505090500191505060405180910390f35b3480156101e857600080fd5b5061021d600480360381019080803573ffffffffffffffffffffffffffffffffffffffff169060200190929190505050610b34565b604051808215151515815260200191505060405180910390f35b34801561024357600080fd5b5061024c610b8d565b005b34801561025a57600080fd5b5061028f600480360381019080803573ffffffffffffffffffffffffffffffffffffffff169060200190929190505050610be0565b604051808581526020018415151515815260200183815260200182815260200194505050505060405180910390f35b3480156102ca57600080fd5b506102d3610c1d565b005b3480156102e157600080fd5b506102ea610d0c565b604051808273ffffffffffffffffffffffffffffffffffffffff1673ffffffffffffffffffffffffffffffffffffffff16815260200191505060405180910390f35b34801561033857600080fd5b5061035760048036038101908080359060200190929190505050610d31565b604051808273ffffffffffffffffffffffffffffffffffffffff1673ffffffffffffffffffffffffffffffffffffffff16815260200191505060405180910390f35b3480156103a557600080fd5b506103c460048036038101908080359060200190929190505050610d6b565b604051808273ffffffffffffffffffffffffffffffffffffffff1673ffffffffffffffffffffffffffffffffffffffff16815260200191505060405180910390f35b34801561041257600080fd5b5061041b610da0565b6040518082815260200191505060405180910390f35b34801561043d57600080fd5b50610446610da6565b005b34801561045457600080fd5b50610489600480360381019080803573ffffffffffffffffffffffffffffffffffffffff169060200190929190505050610df0565b6040518082815260200191505060405180910390f35b6000606660008373ffffffffffffffffffffffffffffffffffffffff1673ffffffffffffffffffffffffffffffffffffffff16815260200190815260200160002060010160009054906101000a900460ff1615156104fc57600080fd5b34606660008473ffffffffffffffffffffffffffffffffffffffff1673ffffffffffffffffffffffffffffffffffffffff1681526020019081526020016000206003015414151561054c57600080fd5b60024381151561055857fe5b06905080606660008473ffffffffffffffffffffffffffffffffffffffff1673ffffffffffffffffffffffffffffffffffffffff1681526020019081526020016000206002015414156106cd578173ffffffffffffffffffffffffffffffffffffffff166108fc6002606660008673ffffffffffffffffffffffffffffffffffffffff1673ffffffffffffffffffffffffffffffffffffffff16815260200190815260200160002060030154029081150290604051600060405180830381858888f19350505050158015610630573d6000803e3d6000fd5b507fc9c2699f361aa9f934bdae46d681458707e9f2b927c7ef495a2bc25a381720348283604051808373ffffffffffffffffffffffffffffffffffffffff1673ffffffffffffffffffffffffffffffffffffffff1681526020018273ffffffffffffffffffffffffffffffffffffffff1673ffffffffffffffffffffffffffffffffffffffff1681526020019250505060405180910390a16107f1565b3373ffffffffffffffffffffffffffffffffffffffff166108fc6002606660008673ffffffffffffffffffffffffffffffffffffffff1673ffffffffffffffffffffffffffffffffffffffff16815260200190815260200160002060030154029081150290604051600060405180830381858888f19350505050158015610758573d6000803e3d6000fd5b507fc9c2699f361aa9f934bdae46d681458707e9f2b927c7ef495a2bc25a381720348233604051808373ffffffffffffffffffffffffffffffffffffffff1673ffffffffffffffffffffffffffffffffffffffff1681526020018273ffffffffffffffffffffffffffffffffffffffff1673ffffffffffffffffffffffffffffffffffffffff1681526020019250505060405180910390a15b6107fa82610e3c565b5050565b6000600154905090565b6000809054906101000a900473ffffffffffffffffffffffffffffffffffffffff1673ffffffffffffffffffffffffffffffffffffffff163373ffffffffffffffffffffffffffffffffffffffff161415610897576000809054906101000a900473ffffffffffffffffffffffffffffffffffffffff1673ffffffffffffffffffffffffffffffffffffffff16ff5b565b6000606660003373ffffffffffffffffffffffffffffffffffffffff1673ffffffffffffffffffffffffffffffffffffffff16815260200190815260200160002060010160009054906101000a900460ff161515156108f757600080fd5b60008210158015610909575060018211155b151561091457600080fd5b6001606660003373ffffffffffffffffffffffffffffffffffffffff1673ffffffffffffffffffffffffffffffffffffffff16815260200190815260200160002060010160006101000a81548160ff02191690831515021790555081606660003373ffffffffffffffffffffffffffffffffffffffff1673ffffffffffffffffffffffffffffffffffffffff1681526020019081526020016000206002018190555034606660003373ffffffffffffffffffffffffffffffffffffffff1673ffffffffffffffffffffffffffffffffffffffff16815260200190815260200160002060030181905550600154606660003373ffffffffffffffffffffffffffffffffffffffff1673ffffffffffffffffffffffffffffffffffffffff16815260200190815260200160002060000181905550336002600154606481101515610a5857fe5b0160006101000a81548173ffffffffffffffffffffffffffffffffffffffff021916908373ffffffffffffffffffffffffffffffffffffffff1602179055506001600081548092919060010191905055506001549050919050565b610abb611054565b6002606480602002604051908101604052809291908260648015610b2a576020028201915b8160009054906101000a900473ffffffffffffffffffffffffffffffffffffffff1673ffffffffffffffffffffffffffffffffffffffff1681526020019060010190808311610ae0575b5050505050905090565b6000606660008373ffffffffffffffffffffffffffffffffffffffff1673ffffffffffffffffffffffffffffffffffffffff16815260200190815260200160002060010160009054906101000a900460ff169050919050565b336002600154606481101515610b9f57fe5b0160006101000a81548173ffffffffffffffffffffffffffffffffffffffff021916908373ffffffffffffffffffffffffffffffffffffffff160217905550565b60666020528060005260406000206000915090508060000154908060010160009054906101000a900460ff16908060020154908060030154905084565b606660003373ffffffffffffffffffffffffffffffffffffffff1673ffffffffffffffffffffffffffffffffffffffff16815260200190815260200160002060010160009054906101000a900460ff161515610c7857600080fd5b3373ffffffffffffffffffffffffffffffffffffffff166108fc606660003373ffffffffffffffffffffffffffffffffffffffff1673ffffffffffffffffffffffffffffffffffffffff168152602001908152602001600020600301549081150290604051600060405180830381858888f19350505050158015610d00573d6000803e3d6000fd5b50610d0a33610e3c565b565b6000809054906101000a900473ffffffffffffffffffffffffffffffffffffffff1681565b6000600282606481101515610d4257fe5b0160009054906101000a900473ffffffffffffffffffffffffffffffffffffffff169050919050565b600281606481101515610d7a57fe5b016000915054906101000a900473ffffffffffffffffffffffffffffffffffffffff1681565b60015481565b336000806101000a81548173ffffffffffffffffffffffffffffffffffffffff021916908373ffffffffffffffffffffffffffffffffffffffff1602179055506000600181905550565b6000606660008373ffffffffffffffffffffffffffffffffffffffff1673ffffffffffffffffffffffffffffffffffffffff168152602001908152602001600020600301549050919050565b6000806000606660008573ffffffffffffffffffffffffffffffffffffffff1673ffffffffffffffffffffffffffffffffffffffff16815260200190815260200160002060010160006101000a81548160ff0219169083151502179055506000606660008573ffffffffffffffffffffffffffffffffffffffff1673ffffffffffffffffffffffffffffffffffffffff168152602001908152602001600020600201819055506000606660008573ffffffffffffffffffffffffffffffffffffffff1673ffffffffffffffffffffffffffffffffffffffff16815260200190815260200160002060030181905550606660008473ffffffffffffffffffffffffffffffffffffffff1673ffffffffffffffffffffffffffffffffffffffff16815260200190815260200160002060000154915060026001805403606481101515610f8257fe5b0160009054906101000a900473ffffffffffffffffffffffffffffffffffffffff16905080600283606481101515610fb657fe5b0160006101000a81548173ffffffffffffffffffffffffffffffffffffffff021916908373ffffffffffffffffffffffffffffffffffffffff16021790555081606660008373ffffffffffffffffffffffffffffffffffffffff1673ffffffffffffffffffffffffffffffffffffffff1681526020019081526020016000206000018190555060016000815480929190600190039190505550505050565b610c80604051908101604052806064906020820280388339808201915050905050905600a165627a7a723058203df6cfd3b847545fc2ad7afa9ab8ecbfd70a4b4b3e8ed363f9b16043c25b732b0029",
  "source": "pragma solidity ^0.4.20;\n\ncontract CoinFlip {\n  address public owner;\n  uint public initiatorsCount;\n  address[100] public initiators;\n\n  struct Game {\n    uint index;\n    bool active;\n    uint256 initiatorBet;\n    uint256 amount;\n  }\n\n  mapping(address => Game) public games;\n\n  event GameFinish (\n    address initiator,\n    address winner\n  );\n\n  function constuctor() public{\n    owner = msg.sender;\n    initiatorsCount = 0;\n  }\n\n  function kill() public {\n    if(msg.sender == owner) selfdestruct(owner);\n  }\n\n  function getInitiatorsCount() public constant returns(uint) {\n    return initiatorsCount;\n  }\n\n  function getInitiator (uint index) public constant returns(address) {\n    return initiators[index];\n  }\n\n  function getInitiators () public constant returns(address[100]) {\n    return initiators;\n  }\n\n  function addInitiator () public {\n    initiators[initiatorsCount] = msg.sender;\n  }\n\n  function createGame(uint256 bet) public payable returns(uint index) {\n    require(!games[msg.sender].active);\n    require(bet >= 0 && bet <= 1);\n\n    games[msg.sender].active = true;\n    games[msg.sender].initiatorBet = bet;\n    games[msg.sender].amount = msg.value;\n    games[msg.sender].index = initiatorsCount;\n    initiators[initiatorsCount] = msg.sender;\n    initiatorsCount++;\n    return initiatorsCount;\n  }\n\n  function checkGameActive(address initiator) public constant returns(bool){\n    return games[initiator].active;\n  }\n\n  function checkGameAmount(address initiator) public constant returns(uint256){\n    return games[initiator].amount;\n  }\n\n  function joinGame(address initiator) public payable {\n    require(games[initiator].active);\n    require(games[initiator].amount == msg.value);\n\n    uint256 randomNumber = block.number % 2;\n\n    if (games[initiator].initiatorBet == randomNumber) {\n      initiator.transfer(games[initiator].amount * 2);\n      emit GameFinish(initiator, initiator);\n    } else {\n      msg.sender.transfer(games[initiator].amount * 2);\n      emit GameFinish(initiator, msg.sender);\n    }\n\n    resetGame(initiator);\n  }\n\n  // Send back funds to initiator and reset its games\n  function stopGame() public {\n    require(games[msg.sender].active);\n\n    msg.sender.transfer(games[msg.sender].amount);\n    resetGame(msg.sender);\n  }\n\n  function resetGame(address initiator) private {\n    games[initiator].active = false;\n    games[initiator].initiatorBet = 0;\n    games[initiator].amount = 0;\n\n    uint rowToDelete = games[initiator].index;\n    address keyToMove = initiators[initiatorsCount - 1];\n    initiators[rowToDelete] = keyToMove;\n    games[keyToMove].index = rowToDelete; \n    initiatorsCount--;\n  }\n\n  // Fallback function in case someone sends ether to the contract so it doesn't get lost\n  function() public payable {}\n}\n",
  "sourcePath": "/Users/wardoost/Repositories/decentralised-apps-course/coin-flip/contracts/CoinFlip.sol",
  "compiler": {
    "name": "solc",
    "version": "0.4.23+commit.124ca40d.Emscripten.clang"
  },
  "schemaVersion": "2.0.0",
  "updatedAt": "2018-04-27T15:36:30.893Z"
}